:020000040800F2
:10000000201E0020D5000008C56A00089D350008A4
:1000100000000000000000000000000000000000E0
:10002000000000000000000000000000D99200085D
:1000300000000000000000006372000831B30008F7
:10004000E7000008E7000008857D0008E7000008D9
:10005000E70000083D0C0008410C00084D0C0008AA
:10006000E7000008E7000008E7000008790B000837
:10007000E7000008E700000800000000E7000008B3
:1000800000000000E7000008000000000000000081
:10009000E700000800000000E7000008E700000893
:1000A000E7000008E7000008E7000008E700000894
:1000B000B1BE0008E7000008E7000008E7000008FC
:1000C0000348854600F02CFA00480047ADC80008F8
:1000D000201E00200448804704480047FEE7FEE752
:1000E000FEE7FEE7FEE7FEE719B60008C1000008DC
:1000F00030B50B46014600202022012409E00D46C0
:10010000D5409D4205D31D469540491B2546954047
:1001100040191546521E002DF1DC30BD70B500248B
:100120002546002801DA01244042002901DA012590
:100130004942FFF7DDFFAC4200D04042002C00D026
:10014000494270BDF0B51FB40646002082B0054696
:100150004024019100901BE0019922460F46304651
:1001600000F08CF9049A059B801A994110D310462F
:100170001946224600F072F9361A8F41019722463D
:1001800001200021009F00F069F938184D410090CE
:100190002046641E0028DFDC019B00982946324679
:1001A00007B0F0BDF0B51FB486B0002000900190FC
:1001B00002900698069980B204900798090C0204F0
:1001C0000014114307900027089D099806913E46A8
:1001D0003C4603900398A9B20204000C03900498D3
:1001E0002D0C154348430021224600F037F9C7196A
:1001F000714110340E46402CECDB3846029A00F078
:100200002DF9009A019B80180090594102980191A4
:10021000103002904028CCDB00980BB0F0BD0346B4
:100220000B439B0703D009E008C9121F08C0042A2A
:10023000FAD203E00B780370401C491C521EF9D21D
:100240007047D2B201E00270401C491EFBD27047D9
:100250000022F6E710B513460A4604461946FFF792
:10026000F0FF204610BD421C0178401C0029FBD144
:10027000801A7047F8B502464A40D40F42004B003E
:1002800052085B089A4202D20246084611464A00CA
:1002900023D0C30D4A00DDB2120EAD1A202D35DA7F
:1002A00049020126490AF6058A19002C00D052425B
:1002B00020214F1B1146B9402A411018C20D9A4205
:1002C00021D0002C17D0012D08DCDA05801AD20FBE
:1002D0008019D207DBB200F0EAF8F8BDDA05801A1F
:1002E000012340001B06C01880185A428018CA0F0C
:1002F0001043490007E04908C2071143DA05801A94
:1003000080194008801800F0CAF8F8BD6100012289
:10031000511A001BF7E70122D2075140AAE7012238
:10032000D2075040A6E7024670B54A40D30FDB071C
:1003300040002DD04A002AD0010E140E00021202F5
:100340000919400A520A8418E50104465443000A78
:10035000120A2E045043A4194219200CC543AA18AE
:10036000120C0125AD03521C521912047F392404CA
:1003700000D0521C104301D44000491EC2B20C06EA
:10038000C0092018401C4008802A02D003E0002049
:1003900070BD40084000002900DA0020184370BDFD
:1003A00070B502464A40D50F40004A00ED074008AC
:1003B0005208002814D0002A12D0C40DD30D4102D7
:1003C0000120C0055202490A520AE41A09181218FB
:1003D0007D34914201D3641C00E04900002C01DA15
:1003E000002070BD0023914201D3891A03434008C5
:1003F00049000028F7D100290AD0914202D10121F9
:10040000C90705E0914201D2012101E00121C94360
:10041000E005C018401900F042F870BD10B5002288
:100420009623114600F043F810BDC20F4100400270
:100430000123400ADB05D207090EC0187F2901DA23
:1004400000207047962903DC9623591AC84001E022
:1004500096398840002AF4D04042704710B5202ACF
:1004600004DB0146203A9140002010BD914020233A
:100470009C1A0346E3401943904010BD10B5202A52
:1004800004DB0846203AD040002110BD0B46D34083
:10049000D0402024A21A91400843194610BD0029DB
:1004A00004DA401C490001D140084000704770B494
:1004B0000024050C05D11024000402D1002921D00C
:1004C0001124050E01D100020834050F01D10001ED
:1004D000241D850F01D18000A41C002801DB4000F1
:1004E000641C002908D020252E1B0D46F540A14094
:1004F00000D001212943084301061B1B000ADB1D14
:1005000002D5002070BC7047DB0518188018002940
:10051000F8DA401C4900F5D170BC40084000704733
:10052000064C0125064E05E0E36807CC2B430C3C46
:1005300098471034B442F7D3FFF7C6FDB4D500088E
:10054000D4D5000870B504460068816800254907C5
:100550001DD58168490706D58168890703D481685C
:1005600010220A43826001F053FA06462068806830
:1005700040070CD501F04CFA801B0B28F6D3606DB8
:10058000102101436165A06D01252843A06528461F
:1005900070BD00001CB50446064800680649FFF718
:1005A000A7FD604301900198002802D00198401EE9
:1005B000F8E71CBDE800002040420F0070B504467B
:1005C0000068826803210A400025012A20D10268C0
:1005D000D2071DD0826805231340012B10D18268F9
:1005E000022313438360016001F012FA064620687B
:1005F0008068C0070CD001F00BFA801B0B28F6D3E3
:10060000606D102101436165A06D01252843A0653F
:10061000284670BD70B504460068816803220A4010
:10062000012A02D10168C90725D18168134A114204
:1006300006D0606D102101436165A06D012517E0B2
:1006400081680125294381602846FFF7A3FF01F057
:10065000DFF9064620680068C0070CD101F0D8F920
:10066000801B0B28F6D3606D102101436165A06DDE
:100670002843A06500E00025284670BD17000080D3
:10068000F0B585B0009000200390029006F068F865
:10069000214801680907FCD501277A02E149086869
:1006A0000192104308601D4E00243046214600F0A0
:1006B0003EFC3D03681C03901948029002AF30468F
:1006C000394600F089FC039500980290304639467F
:1006D00000F082FC002801D000F0E4FA0F4800F09E
:1006E0008DFE002801D000F0DDFAE1430B4C2046DE
:1006F00000F022FE204600F0ADFE204600F020FD76
:100700000546204600F0C6FCC6490868019A904399
:100710000860284605B0F0BD047000406814002051
:10072000FFFF0700F0B58BB00C46019007AD002726
:1007300010262846394632460CF0D5F82846294678
:10074000029422460BF006FF287840B2002811D40C
:100750000F2F09D007A9CA195278D30940001818D9
:10076000C8557F1C1046F3E707A8C17B4900C17339
:10077000029F13E00021029F0F2909D007AA5318F6
:100780005B78DD09400028185054491C1846F3E7EF
:1007900007A8C17B490087224A40C27345208200D6
:1007A000B9580F20C04310290DD1FF21023179180B
:1007B00000284CD00A18137C07AD2D182D7C5D4005
:1007C0001574401CF4E7009207AB1B785BB2002560
:1007D000002B16D40F2D1DD007AA54196478E709F1
:1007E0005B00FB18029F53556D1C2346F2E707AFD1
:1007F0007A195278D4095B00E3187B55029F6D1C6F
:1008000013460F2DF3D107AAD37B5B0087245C40EE
:10081000D47303E007AAD37B5B00D373009ABA18A2
:1008200080237918FF2502354B551168491C11604A
:1008300000231029F5D37919002808D00A18137C51
:1008400007AC2418247C5C401474401CF4E7384640
:10085000F130002E06D00178027C4A400270401C24
:10086000761EF6E73946F13103AD102628463246AA
:100870000CF025F8284601993A460BF06BFE07A8C4
:10088000002132460CF02FF80BB0F0BDB0B5044695
:10089000F1300025102229460CF025F84520800073
:1008A0002550F022204629460CF01DF8B0BD80B539
:1008B0000B460246102118460BF072FF80BDF0B5C2
:1008C00089B013460D460646452080003158301841
:1008D00002900029039639D07018FF220232801846
:1008E0001026771A9F423C4600D31C46A2B22946E6
:1008F00004930BF0E4FF029908680019086004995A
:100900008F4254D2102852D30398F130002E06D0D3
:100910000178027C4A400270401C761EF6E7039E76
:100920003146F131009105AF1022019238460BF0AB
:10093000C6FF3846394632460BF00CFE0098394661
:10094000019A0BF0BCFF049B1B1B2D193746F13796
:10095000112B21D304930F20C043002807D039184E
:100960000A7C2B181B7C53400B74401CF5E705AE2A
:1009700010243046394622460BF0A1FF304631465E
:10098000039A0BF0E7FD3846314622460BF097FFFD
:10099000049B103B1035DBE7FF2002300399081859
:1009A0009AB229461C460BF08AFF0298046009B0EF
:1009B000F0BD0000F0B585B025481949016002F08E
:1009C000B3F8002801D0002028E001200003584996
:1009D0000A6802430A6000260496032003900296E8
:1009E0000220019080200090052004076D460E4FE4
:1009F00020462946B84740200090049620462946C4
:100A0000B84720200090049620462946B847104851
:100A100005F04CFF002801D00720C04305B0F0BD11
:100A20000030014034100240791800081CB514460B
:100A30000A4601467D20C00000900548234602F08A
:100A4000DDF8002801D00520C44320461CBDC04667
:100A500030150020F0B5CDB00224002934D007466F
:100A60005298002830D01D460E460092019003A8EF
:100A7000FFF70CFF02A9284600F0ACF90446002855
:100A800022D10298411C03A8FFF711FF002F04D0C8
:100A900003A810223946FFF712FF03AD284631465E
:100AA000009AFFF70CFF49AE30462946FFF73AFEA1
:100AB000F0780006B1780904081871780902401826
:100AC000317840180199086020464DB0F0BD000013
:100AD00070B5002815D00023DA430B4C8B420ED0A2
:100AE000C55C6A400025082D07D2012616407642D3
:100AF0002640520872406D1CF5E75B1CEEE7D043C0
:100B000070BD002070BDC0462083B8EDB0B5012097
:100B10008405074D28682043286000F0BBFC00F0E6
:100B2000C5FC00F0BDFC2868A0432860B0BDC046ED
:100B30003410024010B586B0002405940494039448
:100B400003200290400301900948016801221143EB
:100B5000016000681040009000980520000701A97E
:100B600000F08AFE2046FFF7D1FF06B010BDC04658
:100B70002C1002407047000080B5024800F00EFDC6
:100B800080BDC046C414002070B5046C456C1C26A2
:100B90002E400125B54065600468636080681028B8
:100BA000134600D00B46A360102800D01146E16028
:100BB00070BDBFB5044600200390029001900090E4
:100BC000022C03D0032C19D1022500E00125684630
:100BD000C3710271417005701B0A0372130C83719B
:100BE000120A42710A0CC270090A81700121224660
:100BF0000AF030F9002802D00F2000E00B2004B0EA
:100C0000B0BD0000E0B505A1085C00900220002105
:100C100003A30A460BF054F98CBDC0464142430081
:100C200053776974636820746F20436C6173732019
:100C3000256320646F6E650D0A0000007047000098
:100C400080B50A48083000F081FD80BDB0B5074C82
:100C500020461830064DA84720461030A8472046A9
:100C6000A8470120400300F0FBFDB0BD4814002060
:100C70004D17000800207047B0B50549054A064BDE
:100C8000064C074D0560051D16C503610020B0BD6B
:100C90000000904100004842AB0305000D093E00F2
:100CA00000007A44EFF3108072B6FEE71CB509F03D
:100CB0009DFE0E49884201D9FE200CE0C108E129C1
:100CC00001D2002007E0FE214143094808184B21CA
:100CD0000901FFF70DFAC4B200940220002101229D
:100CE00004A30BF0EDF820461CBDC046B80B000075
:100CF0001006F9FF564444413D2025640D0A0000CA
:100D0000B0B500F089FE044600F08CFE0546654053
:100D100000F08EFE6840B0BD008800290DD1094961
:100D20008A4201D3084901E07D21C9001209E12A64
:100D300000D26421814200D30846002800D101205E
:100D40007047C046B09A00001027000070B50246F8
:100D500020200B4B1C5C0020002C10D00546A54227
:100D60000DD20E78964209D01E461C36B14201D0F3
:100D7000091D01E019460C316D1CF0E7084670BDF5
:100D8000D409002010B50021074AA82908D05358DB
:100D9000834203D853189C68844202D80831F4E790
:100DA000FEE7187910BDC046A4CE000810B50B228E
:100DB000D343074A1C1D09D0D3181B7B834223460B
:100DC000F8D1101908300860002010BD0C2010BDAB
:100DD000A0000020B0B5BA22D443094A12682346C5
:100DE00011330AD01419CB25645D84421C46F7D117
:100DF000D018BA3008600020B0BD0320B0BDC04696
:100E0000BC13002000290FD0401E03280ED8C04676
:100E10007844007940008744010B11180E4800689F
:100E200002690A6001690EE00A20704705207047D8
:100E30000948006842690A60416904E006480068A0
:100E400082690A608169016203E003480068C06941
:100E5000086000207047C046F8090020E0B56946E8
:100E6000487074220848825C8A708022825C002A62
:100E700001D00E2200E00D220A704022805C07F0B3
:100E8000F0FFC0B28CBDC046040F002080B509F051
:100E9000C3FDC10DC9B2401800B2000A80B280BDC6
:100EA000F0B585B00D4606461148845711493046C5
:100EB00007F0C6F801461048476A01220020072EB5
:100EC00009D10523EDB200930190029503927D2292
:100ED000D200624307E00823EDB20093019002952F
:100EE0000392012022460346B84705B0F0BDC04634
:100EF0009CCE00087CCE000860CF000870B5044688
:100F000000F08AFD054600F093FD45192E0E00F015
:100F100089FDE671290CA171290A61712571207082
:100F2000010EE170010CA170000A607070BDFEB589
:100F300005465020285C012801D1022449E02E46B4
:100F40005036012434702868826803210A40012A3F
:100F500007D12F46543703686A6DDB0733D10296F9
:100F600003E002966A6D2F46543781235B009A4353
:100F7000921C3A60C668C2688A43C260E20783680E
:100F8000134383600E40019600F042FD0646286838
:100F9000816800290CD500F03BFD801B0B28F6D39F
:100FA000386810210143022081433960029E0EE01F
:100FB000C168019A1143C1603A682243022082430A
:100FC0000024029E02E02020024301243A60002017
:100FD00030702046FEBD000070B50C460146502022
:100FE000085C012801D1022070BD0D46503501205A
:100FF00028700A6893685B0721D40ACC234808400C
:10100000234E083CB3421FD1936A83439362480343
:10101000B34A04D50120C0051368834313608803D5
:1010200004D5012080051368834313600020C903A1
:1010300028D50121090613688B43136022E04A6D0D
:10104000202313434B651DE0936A034393624803D7
:10105000A34E08D50120C0053168014331600A2044
:10106000FFF798FA2168880304D5012080053268CB
:10107000024332600020C90304D501210906326809
:101080000A4332600021297070BDC046FFFF07008F
:1010900001100000B0B5002813D00446406D0221B5
:1010A000014361652046FFF74DFA0546012838D017
:1010B000002D0BD12046FFF781FA012803D101252D
:1010C0002FE0012530E00546012060652068416879
:1010D000164A0A40426016490160012109078268E8
:1010E0008A438260C168134A0A40C2600169124A99
:1010F0000A4002614169072291434161016A0F4A36
:101100000A400262B42142587F23DB431A40425016
:1011100042581A404250204600F0E6F80020A065F0
:1011200060655020002121542846B0BD60F7FFFFC4
:101130009F08000000023E8302FCFF3F00F000F029
:101140000068006C70470000F8B50125002800D148
:10115000C3E0044606465036406D002805D1002005
:101160003070A065204600F0D7F8606DC00625D429
:1011700020688168490721D481214900626D8A4332
:10118000911C6165816803221140554B012902D1F0
:101190000168C9072CD161680125EE07B14205D06D
:1011A000AD07A94202D09507A9420ED19207056961
:1011B0009543056102690A43026111E00020307025
:1011C000606D10210143616587E00269AA430261F5
:1011D0000F2292041D6895431D601A680A431A6025
:1011E000C16818229143C160A168C2680A43C26005
:1011F0002246203201214D061E68AE431E60656BFB
:101200006D061E682E431E608368DB0003D40B0747
:1012100085681D4385600091C368324D1D40C560DF
:1012200023699B1E5D425D41AB00E6681E43157855
:101230006B033343266B1E43137B5B003343A6696A
:10124000E769B6031E43FB033343C6681E43C6600B
:10125000676A06460C36FF210B46C2339F4204D014
:10126000A36A3B4337681F4337605278012A009FC7
:101270000DD1002D07D0626D2023134363652646F0
:1012800058363A4600E03A04336813433360026943
:10129000E36B012B0DD189008A4302612346403361
:1012A0000ECB0A431A4301691143016102693A43B3
:1012B00003E0D10702D00269BA4302614169072203
:1012C00091434161A16B42690A4342610025A565D2
:1012D000606D38430221884360652846F8BDC046EA
:1012E000082701401902FEFF00681149884200D01A
:1012F00070470120400206490A6802430A600868F4
:10130000044A104008600869104008617047C046F0
:1013100024100240FFFDFFFF00680549884200D00D
:1013200070470120400203490A6802430A6070477F
:101330000024014034100240FEB50D46044601462B
:1013400050314069082802D10291082705E0206841
:10135000C068C0073BD102910C2720462030019085
:1013600000F056FB064621680868384211D1681C17
:10137000F9D0002D04D000F04BFB801BA842F2D91D
:10138000002002990870606D04210143616503200B
:10139000FEBD01204202636D13436365CA681205F6
:1013A000920F23D1019A1278002A1FD10A681207DE
:1013B0001CD58A68520712D448680C2290434860B2
:1013C000FF200230626D8243501C60650EE00020F9
:1013D0000870606D2021014361650120FEBD626DD2
:1013E000202313436365A26D0243A265A269002016
:1013F000002A00D0FEBD0C220A60FEBD70B5044676
:1014000001688A68022052070FD45022A25C012A88
:101410000BD02546503501262E70E069012806D0F4
:101420002046FFF7F7F8002800D070BD2168606DF6
:10143000074A02403002101860650020A0651C2297
:101440000A6028708A68042313438B6070BDC0460D
:10145000FEF0FFFFB0B504465020205C012801D10A
:101460000220B0BD25465035012028702046FFF7E8
:1014700069F800280BD12046FFF7A0F8002806D114
:10148000FF200230616D8143481C6065002000210F
:101490002970B0BD0848016801229143016070477E
:1014A00005480168042291430160704702480168C1
:1014B00002229143016070470458014010B5252174
:1014C000425C01462431022A12D1026813680E24BC
:1014D000A343136013680124A3431360026C406CA0
:1014E0001C2303402046984050604C70002002E0CE
:1014F0000422C263012000220A7010BDB0B525216C
:10150000415C022919D101462431026813680E2476
:10151000A343136013680125AB431360026C436C53
:101520001C241C402B46A340536000240C704D70BB
:10153000816B002904D0884702E00421C1630124A3
:101540002046B0BDF8B5002824D00446064624360F
:10155000006801680127B9430160002505605A4908
:1015600040181421FEF7C4FD80001C2101408F406B
:10157000544A57600F238B4055490F689F430F60B3
:10158000E563357022646064E56225636563A56385
:10159000757000E001252846F8BDC046F8B5016C1D
:1015A000426C1C24144000910D6802681668730791
:1015B0000FD504210F46A7403B462B4009D01368A6
:1015C0009B0602D413688B43136000994F60016B34
:1015D0002BE003462433B10713D50227A740394631
:1015E00029400ED01168890605D411680A24A14348
:1015F0001160012159700021197000994F60C16A72
:1016000013E0310714D50821A140294010D01168FA
:101610000E25A943116001210A46A240009C626088
:10162000C16300221A705970416B002900D08847AD
:10163000F8BD0000F0B585B0002840D0044605464E
:101640002435022068701F48206426681E48301820
:101650001421FEF74DFD80000090606432681B4944
:101660001140274608378CCF60690190A06902902D
:10167000E0690390206A04901143194339430198AB
:1016800001430298014303980143049B19433160CD
:1016900001218B039A420DD01C22009810400F228A
:1016A00082400B4B1E6896431E6062688240186839
:1016B000104318600020E0632870697000E001208A
:1016C00005B0F0BD00000240F8FFFDBF0F80FFFF36
:1016D000A8000240F8B505462420285C0224012811
:1016E00025D028462430012606704778012F11D1D5
:1016F000022444700024EC6328680768B74307603D
:101700002846FFF741FA286801682A6B002A04D0AE
:101710000E2207E00021017009E0042291430160DC
:1017200002680A21114301600168314301602046CB
:10173000F8BDE0B50190019806F0D1F98CBD002804
:1017400002D00160002070470120704780B5016819
:101750001F220A4001219140464A1368194204D0D1
:1017600011604068002800D0804780BD002901D06A
:10177000012070474260002070470000F0B588B03B
:10178000984A0290904201D0062000E005200B22EA
:101790001207029B9B180A22D3410193042B00D30A
:1017A000019000221446174600910846F8404AD09E
:1017B0000120B84005460D4041D0039007940C210C
:1017C00011400F24069204948C40032205979743FE
:1017D000884838582040019B8B40984211D1854859
:1017E0003B1881490868A84308604868A8434860D6
:1017F0008868A8438860C868A843C8601868A04380
:101800001860079CA240029B1868104318601C20B7
:10181000069D2840049E8640059FF8088000181801
:10182000016AB1430162D8689043D860586803994F
:101830008843586098689043986000992A46121D22
:10184000A41C7F1CB1E708B0F0BDC04680B50121E3
:101850004903884203D1022000210AF0A9FC80BD7F
:1018600080B504490A68024202D00860FFF7EEFF23
:1018700080BDC04614040140F0B588B005910190C8
:10188000584A904201D0062200E005220B231B0794
:101890000198C0180A23D84100900428059C00D361
:1018A000009200200690079026683246C24000D180
:1018B00095E00122134683401E4000D181E0646818
:1018C000122C0490039200D983E01546A5404849A4
:1018D0000D427ED0032506988540019FBA68AA4331
:1018E0000599C968814004981143B9602109814074
:1018F0007A689A433B460A437A60ED434700D968C9
:101900002940059A92680297BA400A43DA6010218A
:101910002143122910D11C21079A11400F228A401D
:10192000C408A4001C19059B206A90431A698A40C8
:10193000024322625C68019B039A186828400325D1
:1019400021462940029FB94001431960E000059CEF
:10195000049836D51346024624490868184308609F
:101960000C20079908400F218140AA43214D53596B
:101970008B4300998140194351511B4803686268A9
:10198000D00301D5334300E0B343174803604368F5
:10199000900301D5334300E0B343134843608368A9
:1019A000D00201D5334300E0B3430F488360C368DE
:1019B000900201D5334300E0B343059C04980A49E3
:1019C000CB600799091D07910699891C0691401C57
:1019D0006AE70323069FBB40DD43019B8FE708B006
:1019E000F0BDC046001C005000040140341002400D
:1019F000060006000800014000690840411E8841B9
:101A00007047002A01D0182200E028228150704738
:101A100080B506F099F880BD014800687047C0465F
:101A20005000F81F014800687047C0465400F81F76
:101A3000014800687047C0466400F81F03480078FA
:101A400003490A68101808607047C0464C0000201F
:101A50001C18002080B51448016802220A43026065
:101A6000032000F009F8002801D0012080BD00F01B
:101A700005F8002080BDC0460020704780B50120D9
:101A8000000708490A6802430A6000F03FF800F0C6
:101A900035F80548016808220A43026000F026F87C
:101AA00080BDC0463810024000200240002809D402
:101AB0001F2108400121814003480160BFF34F8F7F
:101AC000BFF36F8F7047C04680E100E0002805D467
:101AD0001F21084001218140014801607047C04634
:101AE00000E100E080B50AF0D3FC80BD0120800257
:101AF000A0490A6802430A607047C04601204002BC
:101B00009C490A6802430A607047C04699480168C8
:101B1000102291430160704770B501225302954A2B
:101B200014681C40650A234C24682C4002D01568B8
:101B30009D43156015680326B543054315601E488F
:101B400005680426B5430560012901D130BF02E0D4
:101B500040BF20BF20BF002C02D010681843106087
:101B600000BF70BD70B501225302824A14681C4048
:101B7000650A104C24682C4002D015689D431560FE
:101B800015680326B543054315600B480668042510
:101B90002E430660012901D130BF02E040BF20BFC3
:101BA00020BF0168A9430160002C02D010681843CF
:101BB000106070BD2000014010ED00E0F0B587B06E
:101BC000044600680125EA0211462031F44B084220
:101BD00000D195E0986BC0000694029201D50020D8
:101BE00004E02807996B01439963012004902F02B8
:101BF000604C2068C00557D503242005E84B1968C0
:101C000001400595069D6E683246039002403046BD
:101C1000019426042C46059D914206D1A2680090AD
:101C2000039802400098914207D001463140B142EA
:101C300003D11968890300D598E0196D314045D06A
:101C400002463240914202D02278920609D4A2681C
:101C5000324091423AD02168024602980142104631
:101C600034D0196D0122D204CD4B1B6D1343CC4DE2
:101C70002B65CB4B1B6D9343C94A1365C84B0A4672
:101C8000B2431A65394221D02746FFF7C1FE054607
:101C90009C4CC34B186D800516D4FFF7B9FE401B52
:101CA000A042F6D9019D61E0206838432060FFF72B
:101CB000AFFE0646206838429ED1FFF7A9FE801B82
:101CC0006428F7D9032551E03C4678680146314045
:101CD000B1420AD1039A104003221205B04B1B688F
:101CE00093430343AE480360AD4B186D084318653A
:101CF0000498002804D001200007996B8143996360
:101D00002068C10705D0D96C03229143E2680A43D9
:101D1000DA64810705D5D96C0C22914322690A4304
:101D2000DA64410706D503218902DA6C8A436169C6
:101D30001143D964010706D503210903DA6C8A43EC
:101D4000A1691143D964410606D501218906DA6CDF
:101D50008A43216A1143D9640025000606D5032071
:101D60008004D96C8143E0690843D864284607B0F1
:101D7000F0BDC04600700040FEB5002845D00D46BD
:101D800002905F480068012101910840A84214D2E6
:101D90005B4908680126B04328430860594CFFF7A7
:101DA00037FE0746564800683040A84205D0FFF786
:101DB0002FFEC01BA042F5D925E0029C20688107B8
:101DC0005E4E05D53168F0229143A2680A43326025
:101DD000C0071CD14A48006801273840A84220D9D2
:101DE00047490868B84328430860464CFFF710FE8F
:101DF0000646434800683840A84212D0FFF708FE64
:101E0000801BA042F5D90320FEBD0120FEBD626803
:101E100031460C39032A29D0022A2AD109688903BC
:101E20002DE0029B18684107444C06D507210902A2
:101E300022688A43D96811432160000707D507202B
:101E4000C002216881431869C0000843206000F087
:101E500079F821680906090F2B4A515CC8403649B8
:101E600008602A480068FFF707FE0AE00968890150
:101E700005E00968012A01D1490700E089050198B8
:101E800000D4FEBD316803200190814311433160CD
:101E9000FFF7BEFD074660681A4C03281ED00228D3
:101EA00027D001280AD130680C210140042991D0A3
:101EB000FFF7AEFDC01BA042F5D908E0306800076F
:101EC000800F87D0FFF7A4FDC01BA042F6D9019870
:101ED000FEBDFFF79DFDC01BA042F8D830680C2165
:101EE00001400C29F5D175E7FFF792FDC01BA04218
:101EF000EDD830680C2101400829F5D16AE7C046C9
:101F0000002002408813000064CE0008500000202A
:101F100009480068094909684905490F084A515CA0
:101F2000C840704704480068044909688904490F9B
:101F3000034A515CC8407047E80000200C10024082
:101F400074CE000810B5164AD1680807830F1548EB
:101F50007B441B795B009F440108070D01200004AE
:101F600051680904490F884010BD1068C00610D59B
:101F70000E4810BD8B021B0F0B4CE35C0902890F4E
:101F8000491CD468E40307D41068C00603D4084889
:101F900002E0074810BD05485843FEF7A9F810BDF8
:101FA0000010024000127A0054CF000800093D00E2
:101FB0000024F400F0B589B0002857D0FD4EF16838
:101FC0000C220A400692012105910904F768049148
:101FD0000F4007900078C00712D005984404069877
:101FE000082806D006980C2800D0AEE0002F00D1BB
:101FF000ABE03068204203D007984068002847D003
:1020000007980078800733D407980078C00641D439
:1020100007980078000759D407990878400700D539
:1020200089E00878800600D5B8E00798846A002C1B
:102030001AD006980C2800D050E1012C28D0F06866
:10204000049A0240079BD96A8A4221D10F21890450
:1020500001401A6B91421BD1032189050840596B3D
:102060008842059800D0ECE10020EAE10120E8E197
:10207000079BD8680699042904D006990C2977D1C2
:10208000002F75D13168002836D10422114033D099
:102090000598D6E1012044020699002900D19CE070
:1020A0003168079AD2690002002A00D1D1E00143C9
:1020B0003160FFF7ADFC05463068204200D0FCE0FF
:1020C000FFF7A6FC401B0228F6D913E0306D0799F4
:1020D0004969002900D1ABE0012108433065FFF7D1
:1020E00097FC0546306D800796D4FFF791FC401BA6
:1020F0000228F7D90320A4E11F21090272688A434C
:102100001969090211437160316809229143014341
:102110003160FFF717FFF1680906090FDE4A515CCD
:10212000C840DE490860DE480068FFF7A5FC0028CB
:1021300000D086E168E701221107B06BC000019171
:1021400000D496E00020029097E007984368049A34
:102150009342039309D03068052109048B4200D0D3
:1021600034E105998904084330603068104337E151
:102170003168002800D1D2E0092291430143316047
:10218000FFF746FC05463068400700D514E1FFF72D
:102190003FFC411B03200229F5D952E1B0680799A1
:1021A0008969002900D1EEE001210843B060706B1D
:1021B000084370634803BD490A6802430A60FFF799
:1021C00027FC0546B068800700D52EE7FFF720FC06
:1021D000411B03200229F5D933E13168214204D0A3
:1021E0000799C969002900D12BE1072040037168D4
:1021F0008143079B586A01437160FF210906726899
:102200008A43196A090689187160400B0499814054
:10221000F0680006000FA04A105CC1409F480160B2
:102220009F480068FFF728FC002800D009E1EFE68E
:10223000012188433065FFF7EBFB0546306D8007D1
:1022400000D4E9E6FFF7E4FB411B03200229F5D99E
:10225000F7E081433160FFF7DBFB05463068204241
:1022600000D1D5E6FFF7D4FB411B03200229F5D9A5
:10227000E7E0B06B0843B063029203921402894F07
:102280003868C00509D507988168002958D0A1424F
:102290006DD1306D2043039AC4E038682043386024
:1022A000FFF7B6FB054638682042ECD1FFF7B0FBDC
:1022B000411B03206429F6D9C3E00720400371685D
:1022C0008143079A506A08437060FF2000067168D6
:1022D0008143106A00064018706099E601200106EB
:1022E00032688A4332604706FFF792FB0546022CAC
:1022F0000AD13068384200D1AFE0FFF789FB411BBB
:1023000003200229F5D99CE03068384200D1ABE6C1
:10231000FFF77EFB411B03200229F5D991E0012044
:1023200081433160FFF774FB05463068400700D4F5
:102330006AE6FFF76DFB411B03200229F5D980E017
:10234000306DA0433065039A9002316D8143316551
:102350005402554FFFF75CFB0546306D204272D0AA
:10236000FFF756FB411B0320B942F6D969E0306DF7
:102370000522120291424FD1039A9102084330651F
:10238000306D20434EE001218843B0604803474947
:102390000A6882430A60FFF73BFB0546B068800786
:1023A00000D442E6FFF734FB411B03200229F5D994
:1023B00047E0C046001002401F20000271688143C0
:1023C000079800690002084370601DE69043306082
:1023D0003068104008900898059881043068884358
:1023E0003060FFF715FB05460398002810D03068D1
:1023F000204200D004E6FFF70BFB411B03206429B9
:10240000F5D91EE0FFF704FB411B0320642918D80F
:1024100030682042F6D1F3E5A0433065039A91027B
:10242000306D8843306554021F4FFFF7F1FA0546BF
:10243000306D204207D1FFF7EBFA411B0320B94270
:10244000F6D909B0F0BD02980028079900D1E8E557
:10245000B06B019A9043B063E3E5FD200004F1689E
:102460008143079B2C330DCB084310431843F06086
:102470000F48401C316801433160FFF7C9FA044638
:102480003068384200D0EFE5FFF7C2FA011B0320A5
:102490000229F5D9D5E7C04664CE0008E80000203F
:1024A0005000002000700040881300002000014010
:1024B000FFFFFF007047890000684018006D7047FB
:1024C000890000684018026570472022815C01295C
:1024D00001D1022070470146203102234B70006871
:1024E000CA23436253234362836813438360FF22FA
:1024F00042620020087001224A70704780B509F0DE
:102500009DFE80BD10B5044600688168C9040DD5E4
:10251000C168C9050AD52046FFF7F0FF2068C168E9
:102520000E4A0A43012109028A43C2608168890474
:102530000DD5C06880050AD52046FFF7BBFF20688F
:10254000C168FD4A0A43012149028A43C260012051
:102550004104034A11602121605410BD7FFEFFFF3A
:1025600014040140F8B504462020205C012801D164
:102570000220F8BD23462033022058702068CA226A
:10258000426253224262012700931F707D22D600CF
:1025900082683B02994214D1012739028A43826042
:1025A000390382688A438260FFF732FA0546216860
:1025B000C868C0071CD1FFF72BFA401BB042F6D900
:1025C00012E079028A438260790382688A438260DA
:1025D000FFF71EFA05462168C868800708D4FFF790
:1025E00017FA401BB042F6D921680327384600E0AD
:1025F0000020009BFF224A62002119705F70F8BD25
:10260000F8B50092006843681A0CCA703F261E4055
:102610008E701C0A1F2525404D701F047F0F0F7000
:102620000098002814D10F2000901F460740300961
:102630000A267043C0198870009F3C4028097043E7
:10264000001948703A401802000F70438018C87093
:102650000020F8BDF8B50068836A4B600369144C2C
:102660001C408C6004687F2327461F408F70200C1D
:1026700040250540CD70260A33404B703F2505406C
:102680000D70002A12D10F22009214403F090A2235
:1026900057433C198C70009C26401B0953439B19DF
:1026A0004B7020402B095343181808700020F8BDC8
:1026B000FF7F000070B50124002850D00546064673
:1026C00020367078002804D100203070284600F0B1
:1026D0004BF8022070702868CA2141625321416280
:1026E000284605F05DF92968002804D0FF204862DB
:1026F0000420707033E088681A4A02408A60686873
:102700002A690243A86910438A6802438A60E8681C
:102710000861A86800040A6902430A61C868802247
:102720009043C860C86C03229043C864E8696A6932
:102730000243C86C1043C864886880060AD42846DF
:1027400000F0D8F92968002804D0FF204862002052
:102750003070CDE7FF2048620120707000242046D1
:1027600070BDC046BFFF8FFF10B58EB004466846EF
:102770003821FDF76DFD2068114988421DD10020E8
:102780000590042100910A900190012420020290FA
:102790006846FFF70FFC002801D0FEF783FAA0047B
:1027A00008490A6802430A600224002120460A46BA
:1027B000FFF798F92046FFF789F90EB010BDC04623
:1027C0000028004050100240F0B585B00446202695
:1027D000805D012801D10220ACE00D462346203364
:1027E0000220587001271F702068039081684020E4
:1027F0000840002A0293049704D0002807D0E87804
:10280000010406E000280ED0E87800040DE0002165
:10281000E970A85D2A7812046B781B029A18AB78CD
:10282000D7180F4314E00020E87001902878AF49D2
:10283000884707046878AD4988470002C719A87817
:10284000AA498847A9493F1801980743A85D8847C6
:10285000039BCA21596253215962696803916969CE
:10286000AA690192EA693A43060616430E430498A0
:1028700002027D20C7009868696A914216D10092D1
:102880002E490A46803210409860D868C0B208438A
:10289000D860FFF7BDF805462168C868C0071FD19A
:1028A000FFF7B6F8401BB842F6D914E022490A46B1
:1028B000803210409860D868C0B20843D860FFF7F3
:1028C000A7F805462168C868800714D4FFF7A0F868
:1028D000401BB842F6D9216803252846029C24E013
:1028E000CE61012000030A464432029C049D039BF2
:1028F000019E009F08E00E62049D68036F020A4675
:102900004832029C039B019E1E4316608A683A432C
:102910008A608A6802438A606804094A136803432C
:1029200013609368034393600020FF224A620021F2
:102930002170657005B0F0BD7FFDFFFF7FFEFFFFDA
:1029400000040140FEB505462020285C012801D185
:102950000220FEBD0E462C4620340220607001216C
:102960002170002A029106D0F078000471780902E3
:102970000F18B07814E07778F80603D5EF200740F9
:102980000A377770F0785949884700040190384633
:10299000564FB84739460002019A8718B0788847E1
:1029A00001902868CA214162532141623678284645
:1029B00004F0F6FF002803D029680423029816E0EB
:1029C00001980743C0208743700338432968486053
:1029D000C86880229043C8608868800605D428466D
:1029E00000F088F829680028E7D100200123FF22A1
:1029F0004A62002121706370FEBDC046F0B585B00B
:102A000004462020205C012801D102206CE00E4603
:102A10002346203302205870012003901870276845
:102A2000B96840200840002A049305D0002809D046
:102A3000F0780004019008E000280DD0F078000440
:102A400001900CE000200190F07030780004717863
:102A500009020D18B0780EE000200190F070307877
:102A600022498847050470782049884700024519A3
:102A7000B0781E4988470290CA2078625320786255
:102A8000204604F08DFF002804D021680427049D0F
:102A9000039824E002980543019805431448284010
:102AA000216808600127B8048A6882438A60F06858
:102AB00032690243886810438860C8688022904366
:102AC000C86088688006049D08D4204600F012F88B
:102AD0002168002802D00120042700E00020FF2206
:102AE0004A62002129706F7005B0F0BD7979000845
:102AF0007F7F7F0070B504460068C168A0229143C3
:102B0000C160FEF785FF0546064E2068C068800656
:102B100006D4FEF77DFF401BB042F6D3032070BD04
:102B2000002070BDE90300005121405C7047FEB5F4
:102B300000280CD0044605465035406A41218E00DD
:102B4000002806D0002121612146143106E0012031
:102B5000FEBD6168B14203D021461C3100220A60EB
:102B60006978002905D100202870204600F044F83B
:102B7000606A0090022702956F7021680A684023FE
:102B80009A430A606268324021239B02A068184081
:102B900080180122D502E36801952B40C0182369F3
:102BA0003B400343606910401843FC36A7693E4030
:102BB0000643E069382303403343206A80260640F9
:102BC0001E435003A56A2B46034033430B6010237A
:102BD000009E33403E0C04273740DB194B60854292
:102BE00001D1A08D0861C869019B9843C86100208C
:102BF000606502994A70FEBD70470000F0B589B06B
:102C000004465020205C012801D10227FEE0164630
:102C1000069307912746503701253D70FEF7F8FED1
:102C20002A463B467D78012D00D090E00799002987
:102C3000174600D1E7E0002E174600D1E3E00699E1
:102C40000029174600D1DEE004925978042901D00A
:102C50000521597000216165069DE587A663A5875A
:102C6000079A2263216405916164A586E58626683A
:102C700001277A03A16A0392914208D101214903F5
:102C800032688A4332603168039A114331600546E5
:102C900002933168490603D4316840220A43326006
:102CA00001960E9E61684A424A410698431E594267
:102CB0005941114338030690FA02E368934254D114
:102CC000002908D007980188019AD160801C2063F0
:102CD000E08E401EE0860127E08E002803D1E08FC1
:102CE000002800D195E020688168890718D5E18E19
:102CF000012F15D1002913D0216B0A88C260E28E02
:102D0000521EE286891C2163E18E0027002907D12B
:102D1000A16A039A914203D10168069A11430160A6
:102D20008168C9070BD0E18F002908D0A16BC0686A
:102D30000880881CA063E08F401EE0870127FEF713
:102D400067FE711CC8D0401BB042C5D358E0049246
:102D500041218900626802278A4253D1042D51D152
:102D6000A1680029049A4ED160E7002909D007988C
:102D7000017801980173206B401C2063E08E401E97
:102D8000E086E08E002802D1E08F002841D0206844
:102D9000816889071CD5E18E012F19D1002917D030
:102DA000216B09780173E08E401EE086206B401C89
:102DB0002063E08E0028059F0AD1A06A039988420B
:102DC000059F05D120680168069A11430160059F9F
:102DD00020688168C9070CD0E18F002909D0A16B58
:102DE000C0680870A06B401CA063E08F401EE087A5
:102DF0000127FEF70DFE711CC3D0401BB042C0D3AB
:102E00000327029B049A002018705A70384609B0B4
:102E1000F0BDA06A039988420DD10095012120469A
:102E20000A46334606F0F6F9002806D0606D022106
:102E300001436165E4E7206801E02068C1688168BA
:102E4000C90601D4002706E0616D02220A436265CB
:102E50000D4981600127204631462A4606F0A8F92F
:102E6000002803D0202060650127CAE7A068002859
:102E7000029B049AC7D1002008902068C16808917D
:102E8000806808900898BEE7EFFF000001467420B4
:102E9000085C012801D1022070470A4674320020E4
:102EA000107009680A68022313430B60704770476B
:102EB000FEB504467420205C012801D1022535E0CE
:102EC000254674352420A067206803680126B34393
:102ED000036002952E7003252B0587689F430F43DF
:102EE000876000290DD141681023994393B20B43A9
:102EF0004360FF21090643688B43110C09065918EA
:102F00004160016831430160FEF782FD03460848D5
:102F10000090B10500262046324608F07FFF0028C9
:102F200002D12020A0673546029806702846FEBDD3
:102F3000FFFFFF0170477047F0B587B00168CE69A9
:102F40000F6820253A462A4001230693DC020494A8
:102F50002F34344005918B68202C07D1002A05D0EE
:102F6000416E002900D0884707B0F0BD019502905E
:102F700058300390049C0F34264209D01D46069811
:102F800005406C426C4187490F423BD1002C39D03F
:102F90003740F8060298016E25D5012923D1102269
:102FA00005990A62896849067DD4039948880B8887
:102FB00049880029D8D01C1A2104D5D009214901FB
:102FC000059D2B688B432B60A96806988143A960F7
:102FD00002980199C1670021016641662968914301
:102FE0002960A1B28DE0F10200D48DE00699890537
:102FF0000B4000D188E006990905059A1162FFF798
:1030000099FFB1E7F1070AD006980102394006D0CE
:103010000598069B03620398816A19438162022026
:103020003146009001404B424B41234307D1059864
:10303000009901620398816A04230B438362042090
:10304000314601404B424B412343039B06D101468D
:1030500005980162996A0098014399621543681EB8
:103060008541300707D5002D05D008200599086255
:10307000996A01439962049806420AD0069880062C
:10308000384006D0059804990162986A019908436E
:103090009862986A002800D166E73740B80645D4A0
:1030A000029D039C4BE0006F04686568AEB2002E81
:1030B00000D159E703990B889E4200D354E7039E41
:1030C000758021688906029C17D438492031059DF6
:1030D0002B680B402B60A968069B9943A960A968DF
:1030E00040239943A9600199E1670021216629687D
:1030F00091432960FEF7E2F933887088181A81B28B
:103100002046FFF7D4FE2FE739063AD4780600D4DC
:103110002AE7059A10684021884310600021029830
:1031200081660199816700F0B9F91DE7029D6A6E19
:10313000002A039C03D02846904728680590A06A7F
:1031400028210140059880682646402420404018E8
:1031500021D0284608F0A3FC28688168490616D5C6
:103160008168A1438160286F002810D00E498163D7
:10317000FEF7C4F9002800D1F6E60298006F816BD3
:10318000F1E6816E002900D1EEE60298EBE62846D2
:10319000FFF7D1FEE8E62846FFF7CDFE0020B0623B
:1031A000E2E6C04620010004FDB90008DFFEFFFF93
:1031B000B0B500282ED00446806F002805D17420B9
:1031C00000212154204600F045F82420A067206803
:1031D00001680125A9430160204608F0EDFC0128A3
:1031E00019D0606A002802D0204608F076FB09203A
:1031F000C00221684A6882434A6088682A22904354
:1032000088600868012202430A60204608F0C2FB79
:10321000054600E001252846B0BD000010B5044673
:1032200000684D49884200D010BD01204004084983
:103230000A6882430A60052000070C21FEF79EFA07
:10324000E06EFEF77FF91C20FEF730FC10BDC04693
:1032500038100240F0B593B004460EA81421FCF7D4
:10326000F7FF05A82421FCF7F3FF20683A498842BC
:1032700070D103943948026801210A430260026850
:103280000A400492049A02680A43026002680A40F3
:103290000492049A4A04C3681343C36043680B430F
:1032A000436043680B4004930499C1681143C160B3
:1032B000042709970225059505A8FEF77FFC00283D
:1032C00001D0FDF7EFFC129703200290119000242B
:1032D00010940F950E970520019505070EAE284610
:1032E0003146FEF7C9FA129702981190109401988E
:1032F0000F9008200E9028463146FEF7BDFA184D73
:1033000080201021174A84C529606C60A860EC6099
:103310002C616C61AC61083D2846FEF78BF90028F2
:1033200001D0FDF7BFFC0398A862C5660B240025F9
:103330000126204629463246FEF7D4FB2046FEF7FA
:10334000C5FB1C24204629463246FEF7CBFB20460F
:10335000FEF7BCFB13B0F0BD004400402C1002404F
:10336000C41400208000024070B5C36F0225202BDA
:1033700026D10124002924D0002A22D001231C03B5
:103380008668A64204D10469002C01D1CC071AD169
:103390007424045D012C2C4613D00546743500249A
:1033A00004662B700568094EB54206D06E68360279
:1033B00003D59B062E681E432E6008F0E9FC00E052
:1033C0002C46204670BD1C46FBE7C0460048004026
:1033D00010B5044608484368002B07D080202058C9
:1033E000002803D104480121002298470249012204
:1033F0002046FFF7B9FF10BD34010020F8B5134691
:103400000446826F0220202A35D10125002933D0BD
:10341000002B31D001263203A568954204D12269E0
:10342000002A01D1CA0724D1274674373A78012AE5
:10343000054621D02046503043800025FD60E164E0
:103440003E7003802120A067E06E002816D0124A4B
:10345000C262104A02630E4A4263856322682832C0
:10346000FEF738F9002809D01020F8603D702020C0
:10347000A067354600E005462846F8BD2068402193
:1034800001623D70816880220A438260F4E7C04691
:1034900013BA000895BA000867BA000880B5024858
:1034A00001680020884780BD441400207047000058
:1034B000F8B50C460090FC27324DE85D022802D09A
:1034C0003148C06A804700F06AFD002807D002201A
:1034D00000F07AFD002000F05BFD012600E00026F0
:1034E000E85D012817D100F060FD002807D0002614
:1034F000304600F06CFD304600F061FD012600F022
:1035000052FD002807D00024204600F05EFD204632
:1035100000F051FD2DE0002E2BD11C481C4E305CDC
:103520000921C901715C00290AD0002801D019487D
:103530003454204600F006FFE85D022814D118E05C
:103540000028009801D01349705400F0FBFEE86A8F
:1035500008F066FEED2189007158884209D3732076
:10356000C000301808F00AFF0B48315C20220A43E3
:103570003254E85D022800D006200921C901044A1E
:103580005054F8BD040F002060CF00081404000060
:10359000FC0900203904000081040000FEE700005F
:1035A000F0B5A3B00146604C2046183010252A46DD
:1035B00008F06EFD03F0C6F8227E4068D040C007D8
:1035C00009D0204608302146283101F01BF9002897
:1035D00008D0FF27A5E000200122714B014608F02A
:1035E0006FFCFEE703F070FA0D9511AD02210E910C
:1035F0002970411E88412070284601F0AFFC1299C5
:103600004A4C26461436082730463A4609F057F900
:1036100003202870284601F0A1FC129920461C3096
:103620003A4609F04CF940484068C06880477061EC
:103630000621297012903E4928468847207D0B902C
:10364000617DA27DE37D277E607E0C90A07E0A9046
:10365000E07E09900B9800AC8FC40C9805900A98F6
:103660000690099807900027324B0E9839463A4643
:10367000314CA0472D4B187F0B90597F9A7FDB7FF1
:10368000347B707B0C90B07B0A90F07B09900B9898
:10369000009001910292039304940C9805900A986B
:1036A00006900998079025A30E9839463A46224C71
:1036B000A047F07DB17D727D337D00AC0FC42EA399
:1036C0000E9839463A461C4CA047012028710F2419
:1036D0002C702846164EB0470520287012972846B1
:1036E000B0472F710D9828702846B0473146042006
:1036F00028700D4EB07E287128460D4688470FA9C8
:103700000C70307E344605F0ACFB411E884170776A
:103710001AA82221017014211B91A847707F02F082
:103720003BFF78B223B0F0BD7402002054000020AB
:103730008D50000817D50008C1BE0008232323239D
:103740002323204170704575693A20202530325876
:103750003A253032583A253032583A253032583AE4
:10376000253032583A253032583A253032583A25E9
:103770003032580D0A000000232323232323204442
:103780006576416464723A20253032583A253032E9
:10379000583A253032583A253032580D0A00000088
:1037A00051D50008FEB501A80A21017001F0B8FE4C
:1037B000002801D00020C04306B080BD70B58AB09B
:1037C000FF2500280AD0044601A80026067001F053
:1037D000C5FB002802D102982070354668B20AB0B5
:1037E00070BD0000B0B58AB0FF2500280CD004469B
:1037F00001A81F21017001F0B1FB002804D102983B
:103800002070EA49C876002568B20AB0B0BDC0464B
:10381000B0B5E6490D4A0E4B0E4C0F4D48608D6019
:10382000CC600B614A610D4A4A6382680A6302698F
:103830008A6302688A624068C86200240849204698
:1038400000F056F8002800D0E043B0BD6D6A0008D3
:10385000FD690008756900083D690008C76A00082D
:10386000DC000020B0B58AB002280DD1CE4802217C
:10387000817002F089FE01A801210170CB49C97E47
:10388000017101F04DFE1FE0C74801258570002140
:103890004170C64CE17E01702078002806D101A855
:1038A000272101700949029101F0F0FB02F06CFE42
:1038B00001A80571057001F0E9FB6068C169BA48AB
:1038C0008847607E00F088F80AB0B0BD00030001B0
:1038D00010B58AB001AC01202070204601F03EFBFB
:1038E0004142484121794A1E914108400AB010BD29
:1038F00070B5FF26002818D10C46054600F098FA4E
:10390000002812D0A900A94A5118C8630849094BD8
:10391000094D45628362C16251680969416143682A
:103920000649F22220469847002670B270BDC04674
:10393000A5370008813A000865380008E60700202E
:10394000F8B50C4605463C26984F502E22D0B85963
:1039500000280CD0022D05D0012D0AD0002D06D153
:10396000816900E0016A002901D020468847361DA0
:10397000EBE7C1690029FAD0E27800789042F4D0F0
:103980003C2EF4D1F86BC06880470028EFD0B859BE
:10399000C169EAE7F8BDC046B0B501F07DFF834CD0
:1039A0003C340025052D13D0206800280DD0042DAF
:1039B0000BD80169002908D08068002805D080470D
:1039C000002802D0206800698047241D6D1CE9E7AB
:1039D00003F07CF8B0BDC04670B58AB0044601F073
:1039E000E5F8002801D0FE240EE0FFF771FF012862
:1039F00009D101A80025057001F0B0FAFF260028C2
:103A000005D0344600E0FD2460B20AB070BD01A8C4
:103A10000079A04231D0022C1BD0012CF1D0002C17
:103A20002BD100282C46EFD001A80025057101F00C
:103A30002DFB00283446E7D12846FDF7E3F85B4824
:103A40004068816A00292C46DED000242046884741
:103A5000DAE70028D5D101A80221017101F016FB97
:103A600000283446D0D10220FDF7CCF84F484068FA
:103A7000816A002901D0022088472C46C4E7C0464D
:103A8000F0B589B0029301920F460646FE2501F07B
:103A90008DF800287ED1FFF71BFF01280ED1434C83
:103AA000E06BC0688047002810D0307800280DD027
:103AB000E16B0978884209D0FC2004E03A4880781C
:103AC000FFF7D0FE64E040B209B0F0BDE07E04A98B
:103AD0008873707803A902F067FC002809D052208F
:103AE0000021215404A88181017006910299224687
:103AF00014E052202754307804A908717078888126
:103B000070680690002F224604D004A80821C173D3
:103B1000012101E004A8002101700299019C41CE1D
:103B20001746D27E5423FA54F8653E6604A801F085
:103B30004BF8002C01D00899216011282FD8810062
:103B400001A251588F46C046993B0008953B00089A
:103B50009F3B00089F3B00089F3B00089F3B0008DD
:103B60009F3B0008913B00089F3B00089F3B0008DB
:103B70009F3B00089B3B00089F3B00089F3B0008C1
:103B8000953B0008953B0008953B0008A33B0008C7
:103B9000FD2098E7284696E795E7FA2093E7FF206F
:103BA00091E7FB208FE7C0465400002074020020FC
:103BB000002807D0002905D0BC4B186259621A733F
:103BC000012002E0B94900200862B8490870704736
:103BD000B64800787047C046B448017902780A4078
:103BE000012010407047C046B0490A78012A0BD125
:103BF0000A79012A08D10278012A05D10079002822
:103C000002D0888B401C88837047C046B0B58AB00C
:103C1000A64C2178012900D0F2E0417B002900D197
:103C2000EEE02179012905D1827B002A02D1A28B05
:103C3000521CA283C278E02A00D0E1E0002929D0FA
:103C400081680A78A2710A2A00D9D9E07A441279E7
:103C500052009744055C5F62677A7D9AA8ACB40015
:103C60002046283008F08AFB00202071A08301A89C
:103C700004210170216A0978017101F007FA206AB4
:103C8000407802F089FC206A8068002800D1B7E003
:103C90008047B5E0017B042900D0B1E0806801785D
:103CA000012900D0ACE04178012900D0A8E081785A
:103CB000012900D0A4E0C078012800D0A0E00025B0
:103CC000A5830220A0732572257625752574012110
:103CD000A171217101A801710421017001F0D6F9CF
:103CE000284602F059FC206A4068002800D080472E
:103CF00000952834E943434B20462A4608F06CFAE5
:103D00004149204608F0E6FA00F096F878E00220F3
:103D1000A07375E00120A07102E00120A0710020D5
:103D200020726DE0017BA173626A04231370237B10
:103D3000994200D319460123DCB2A14260DD8568B7
:103D40002D5D6D1C15555B1CF6E701A804212CE0C8
:103D50002046283008F012FB00202071A08301A823
:103D600004210170216A0978017101F08FF9206A3C
:103D7000407802F011FC206A8068002800D080475B
:103D80004B48416A022088473AE0007B07281ED052
:103D9000032830D101A8052202708A7849780902E7
:103DA0008918818027E001A80A2101700CE001A890
:103DB000002202704978017101F068F920E001A841
:103DC0000D2202704978017101F0AAFB18E0887891
:103DD0004A781202101801AA908006201070C87844
:103DE00000040B791B0218184B79C0186423434355
:103DF00003938879107301A801F092FB0120A07150
:103E00000AB0B0BD216B00088813000027490A786A
:103E1000012A0BD10A79012A08D10278042A05D196
:103E200001220A74027A0A75407A08767047C04601
:103E30001F487047704700007CB51C4D287801284A
:103E400032D1287901282FD1287C01280BD10320D9
:103E5000A87300202874686A05210170297D4170CB
:103E6000297E817004E0A879012804D0042809D1B2
:103E70000120A87106E00220A873A88B696A487027
:103E8000000A08706C46E0202070A87B6070686AA9
:103E900001902846283008F037FA0548866A297AC2
:103EA000002201232046B0477CBDC0463C010020D3
:103EB000A8000020F0B589B007468078002801D01E
:103EC000002632E01C46154610203E567A7CB86823
:103ED00018607879002818D003920191029507A9FB
:103EE000022000900870B87C8870F87C04F0B9FF5C
:103EF00045B2B542334600DB2B46B54208DAB989F4
:103F0000B868884207D2002606E0F3B200260AE02D
:103F10000026266004E00126FA895118884207D25B
:103F2000029D0199039A0B702A70304609B0F0BDCA
:103F30001C4607A908200870F87C04F092FF039043
:103F4000B868F989FCF7D4F801291AD107A94C708F
:103F500022200870B87C8870F87C04F082FF034649
:103F600040B2A842DCD1387900260028029DD8D082
:103F700004A900980872F87C1C4604F07FFF2346D1
:103F8000CFE7029D0199039A2346CCE700207047B2
:103F90007047704770477047704700207047002097
:103FA00070470020704700207047002070470020B5
:103FB0007047022070477047002070477047704775
:103FC00070477047002070477047704770477047D0
:103FD0007047022070470000FEB500293ED00190D6
:103FE0000292834B1846083000273E4632019C1847
:103FF000224608323B46102B0AD0C55C5B1C002DC4
:10400000F9D01030761C0F2E794BEFD1022626E026
:10401000774B1868002800D11A6058680028029D64
:10402000019F00D002605A60002616602561277348
:1040300020460D30AAB208F042FC0A2F11D8012008
:10404000B8403921490108420BD00120684BF821C2
:104050005A58AA18521C5A50207500E001263046C2
:10406000FEBD0020F2E7C046811E0020112915D8B0
:104070007944097949008F4412080A080C0E0A0A8B
:104080000811110E11110C081010052070470220A4
:1040900070470120704706207047042070470320B6
:1040A00070470000002805D0F821514A515801609E
:1040B0000020704701207047B0B54D4C0025FC2210
:1040C0002046294608F00FFC256065602846B0BDF3
:1040D00010B500280AD046490B68834208D0002B4F
:1040E00008D01A461B688342F9D104E0012416E087
:1040F00002680A6000224B68834200D14A60002AAD
:1041000001D003681360F8228B588468E4431B19BC
:104110008B50002404601022214608F0E4FB204666
:1041200010BDC04610B532480468002C07D02046A8
:104130002468017B0029F8D1FFF7CAFFF5E70020CA
:1041400010BDC04610B52A480468002C0DD020468A
:10415000246801790A29F8D801228A4039214901C5
:104160000A42F2D0FFF7B4FFEFE7002010BDC046CF
:10417000F8B507460120002927D01646002A24D08A
:10418000009100201A4D2D68002D16D0C1B27A1A68
:10419000AB685B1C9A4210D32A797254441CE0B27B
:1041A00030182A89691D08F08AFB287A2018EAE766
:1041B0002C682846FFF78CFF2546002DF8D1F82003
:1041C0000B490858009908600020F8BD00280CD061
:1041D000014600200870064A1268002A04D0137BAA
:1041E000002BF9D001220A70704701207047C046A9
:1041F000D8080020202261498B5C042B01D90020C3
:1042000070475B1C8B5403788A6813704378537033
:10421000C078D0700020907008461C30824201D0D7
:10422000101D01E008460C30886001207047C04630
:1042300020205249085C704710B520224F498A5C03
:104240000124002A05D04968FCF780FD002800D031
:104250004478204610BDC046FEB504462020474D98
:104260002F5C00260197BE421DD26868017821703C
:10427000427862708378002B06D0286881682046D7
:10428000884700F037F80CE02F4602AD6A702970BD
:10429000C078E87000F02EF828463D46019FFFF7F1
:1042A000A9FF761CDFE7FEBD10B52021334C0022AC
:1042B000625423460C3309C42360FF21142218469C
:1042C000083C08F010FB21200121215410BDC046FC
:1042D00080B52A494968FCF739FD411E884180BDF7
:1042E00020202649085C042801D8002070470120BE
:1042F0007047C04620212148425C002A08D0521E47
:10430000425402461C324168914203D0091D03E029
:104310000020704701460C31416001207047C046C3
:1043200010B5044620221548825C002A09D0426854
:1043300008461146FCF70AFD002802D001218170D1
:10434000447010BD10B521220C49885420228A5C8B
:10435000002A11D04B688A685870DC78002C01D193
:1043600001249C700C461C34A34201D01B1D01E0AB
:104370000B460C339342EFD110BDC046D409002048
:10438000F8B504280DD10020039002900190009010
:10439000684604217F2206F05DFD002802D00F2030
:1043A00000E00B2004B080BDF8B5002901D00B203F
:1043B00011E000210391029101910091012802D1A5
:1043C00068462021017068460021042206F042FD63
:1043D000002800D00F2004B080BD0000F8B50027F1
:1043E0000097002B08D01E4615460C466946FCF780
:1043F00009FD002802D0F8BD0A20F8BD0098411C34
:104400000DD081B2691A012901DB0D1807E00029DE
:1044100016D00121090441180B4A0A40551935608C
:10442000AB4909688978002906D10021281A0A4673
:104430008A41001B8A4101DA3846F8BD0820F8BDE0
:1044400030600720F8BDC0460000FFFF002806D0FE
:10445000EB490968C968491C0160002070470A20BF
:104460007047C046F0B58FB007460A20002962D0D9
:104470001446002A5FD00E4606AD21212846FBF7E0
:10448000E7FE05A800210170DD4909688A882368D4
:10449000217900910195029038463146164606F082
:1044A00067FD002801D00F2045E0D54D2279206816
:1044B00006A908F004FA204601F09FF9002801D06F
:1044C000102038E0E088217A0904471828688168BC
:1044D0008F4201D103202EE00496876005A8007862
:1044E00000263146FFF760FF002824D10420FFF7A3
:1044F00047FF00281FD1607AA17A09020818E17AE3
:1045000009044418032039462246049BFCF751FB5A
:10451000002810D1022039462246049BFCF749FBB3
:10452000002808D12868F143059A8270C6600161AD
:104530004161816130460FB0F0BDC046B0B5002882
:1045400010D0AF4D286000242822214608F0CBF976
:104550002868C4600549016010301421FF22FBF770
:1045600070FE00E009242046B0BDC04600010101F4
:104570001CB5002811D004460020019001A806F0C7
:1045800037FD9F48006801998180E182204601F053
:10459000C6FF002803D011201CBD0A201CBD2168C5
:1045A00020461830009000201322012306F048FC1A
:1045B000002801D00F201CBD204601F0B0FF0028CC
:1045C000E9D1E9E7F0B58BB00A27002B53D01D469F
:1045D00004461A4620328A480068C068A04201D9C1
:1045E000062049E00FD2AB68117A686A127800267B
:1045F00000960194002A01D0032200E0022202F07A
:10460000D1FD002838D1284601F024FF11220028CE
:1046100001D0104630E02B68002B38462CD028798A
:10462000001F0121090287B28F4201D90E2023E029
:1046300004922E462C36AA6807A806900090002106
:10464000384603910593234602F00CFE00960223A0
:10465000069805993A4606F0F3FB002801D00F2092
:104660000AE0039F284601F0F5FE0028049803D1D4
:1046700063480068C46038460BB0F0BDB0B505466D
:1046800006F0E0FC0F24002810D1002D01D00024FA
:104690000CE05B48006880780021FFF785FE002869
:1046A00004D10420FFF76CFE0028F0D02046B0BDF6
:1046B00053490968086000207047C046002805D0AB
:1046C0004F4909681C310162002070470A20704779
:1046D000F8090020F0B5D1B0569F002F31D01C460C
:1046E000154606460B9100200D900DA91046FCF7CB
:1046F00089FB002804D10D98A04203D3401C01D0AF
:1047000006201FE0384601F021F8002801D01020D3
:1047100018E00CA93046FCF749FB002812D1B86814
:104720000B9B984210D1386800280AD0099038793C
:104730000A90001F01210A0280B2904206D90E2081
:1047400000E00A2051B0F0BD0220FBE708900C9871
:1047500041780491F96A06918078079010320DAE85
:1047600000213046039108F0BEF800960121089818
:1047700005910B9A234602F075FD304610300999D9
:10478000089A08F09CF80A990C313046069A079B63
:1047900006F08EFC0146012801D1084600E00F20FA
:1047A0000029CFD13A462032117A786A1278059BD7
:1047B00000930194002A02D00B9B049A01E002228C
:1047C0000B9B02F0EFFC0028BCD1681E032814D814
:1047D00078440079400087440105090D08480068C5
:1047E00004610AE006480068446106E00448006885
:1047F000846102E002480068C4610398A2E7C046F1
:10480000F8090020F0B597B00324002800D181E119
:104810000F46002900D17DE105460068002800D13F
:1048200078E16868002800D174E1A868002800D108
:1048300070E1E868002800D16CE11646104604F0EB
:1048400024FB002800D164E12846FFF72DFDD3208A
:1048500082000C92C3480024214608F044F8A120AD
:104860000D90C200D748214608F03DF8BE4801210E
:104870000F91D44A1154BD481154FC200B94B94AED
:10488000145440200390165443208000B84911501E
:104890008020145414460E9715AF0F203870B54A77
:1048A000304639469047411E88410F9909026054AD
:1048B0000A200A903870039EA05D3946AD4A9047A1
:1048C000C4216054062009903870A05D3946A94A79
:1048D0009047C521605410203870A05D3946A54A24
:1048E00090478C2108916050112002903870A05D93
:1048F0003946A04A904790210791605012203870A5
:10490000A05D39469B4A904794210691224660500B
:1049100013243C70905D3946964A90479821059142
:10492000904A505014203870905D3946914A904713
:104930009C2104918B4A505017203870905D394665
:104940008C4A90470D99874A505418203870905DD2
:104950003946884A9047AC21824A5050A421505091
:1049600019203870905D3946824A9047B0217D4ABF
:104970005054A82150541E203870905D39467D4A0D
:104980009047B421774A50541F203870905D3946C3
:10499000784A9047B521734A505420203870905D72
:1049A0003946744A9047B8216E4A505021203870D9
:1049B000905D39466F4A9047BC216A4A50500B209F
:1049C0003870905D39466B4A90476A4BFD210D91D6
:1049D00089007C4A50520C2038706248805D39460C
:1049E00098476549774A5052A0205E4F0F99395435
:1049F0008820099B3B5484200A9A3A5060203954FD
:104A00003846403003724260089979580A91079AF3
:104A1000B9580991069BFB583A46059FD759049906
:104A2000515808910A99C1600999016143618761F0
:104A30000B9F0899C16112A90F729B20800010186A
:104A400013903B20C00010181290905D04F016FAED
:104A50006920C0005B4E0E99315004F07FFA474840
:104A60003754D120800035500F993E4A0D9811548B
:104A70000D2080013150D762176300976D20C00070
:104A80003018FD433E4B3F4E29463A46B04700970B
:104A90000720C0014B4908183B4B29463A46B0470E
:104AA00000977320C00047490818384B29463A46FA
:104AB000344EB04700977F20C00042490818344B5D
:104AC00029463A46B04710A806F08AFC41208000EB
:104AD0001099244E31502F490C9A3A4B9950301866
:104AE0001199416098182C492C4A2D4B2D4D456049
:104AF0008260C36001612C49096888472320C00097
:104B000030180E99896806F0E1F9002805D0029C5A
:104B100000E00924204617B0F0BD029D1148FFF7C0
:104B20000DFD002801D02C46F4E7FFF7C5FA002858
:104B3000F0D10C48D030FFF7C1FD00282C46E9D158
:104B4000194E7069804707F0EFFE0D98FB49085C2D
:104B5000B16D8847F06A8047F348F4490F9A0A54C8
:104B60003C46D7E7040F00201104000012040000A7
:104B700000030001638E0008F603000081040000BA
:104B80002D700008D9C100088D6E0008C96E00089C
:104B9000D16A0008BD6C0008516C0008F16B000878
:104BA000756C00081D6D000860CF0008DE48DF4905
:104BB000085C012242400D20800108581043411E2C
:104BC00088417047FC090020F0B59BB00322002803
:104BD00032D00446D54E0D208001305801250028E2
:104BE00000D050E1D048305C012800D04BE10A925F
:104BF00008918720C500701900271422394607F054
:104C000072FECB4801233354CA483354207803281A
:104C10000F9407950E9311D001281BD0002831D195
:104C2000C548335420460E3021460C312246083206
:104C30002479099440241CE0154624E1BE48012152
:104C4000315420460A3021460831221D002409949F
:104C5000E0240EE0E07B082800D30820B649705419
:104C600020460E3021460C31224608322479099420
:104C700080240C9412680B9209880691007847B240
:104C80001E4603E009970B973E460C9711A9022593
:104C90000D707420FC4A0D90105C88704024105DEB
:104CA00004F0DFF840B2B84200DB0746002E9F4E0A
:104CB00000D1E4E0FE20F44D0590285C002802D0ED
:104CC00039202B5C12E010A90F700D98285C8870B9
:104CD000285D052204F037F9002829460A9D00D1F5
:104CE000D1E010A8037839200B540D463827E85D31
:104CF0000A90A96A189111200001285C00280E9AD8
:104D00007DD00397FF200290285C002801D100206D
:104D1000286313A802710A9A4274049303740D9ACB
:104D2000AA5C82742A5DC274FC22AA5C059BEB5CBF
:104D3000DF01012A00D110373A23EA5C002A0593EB
:104D400000D02037FAB2D20942711591432189006F
:104D500069581391FD2189007158169129463931FE
:104D60002A46383218ABFFF7A5F8054674490020EB
:104D7000705430801A90019019902720C00030188C
:104D80000B990029069C00D10C46A2B20D9007F0A9
:104D900096FD22466B4BF4540C99B170681E854108
:104DA0004809022806D007282BD004284AD10E989B
:104DB00063497054AC013C432520C10009980B9114
:104DC000705441208000042131541325290172546C
:104DD0004B218F000D99F15130180C9941720299B5
:104DE0000172B11C41600474CC21A74A5158C160C2
:104DF0001AA8FFF72BFB002826D0122534E0072540
:104E00003AE00B9900290AD0100608D01D46C04C84
:104E1000E01CD2B207F053FD605D401C2080089872
:104E200005F032FE054600281ED197490598019DE0
:104E30000D5418988862FFF775F90028B44E4CD0CD
:104E4000132519E002250FE00C970D943E481A999E
:104E500031503E48002434528B204000315219A872
:104E6000FFF720F9002811D0874903980A9A0A54BD
:104E70003920049A0A54A64E31480021315435484D
:104E800030580F99086128461BB0F0BD19980028CA
:104E9000C5D039207C490856FBF7E0FF9C49294AD8
:104EA0008E5C1999002E21D00F291FD82320C00015
:104EB00097490A180F2619A93046FFF759F9002813
:104EC000D2D1F0200D99014019A800783040401847
:104ED000452189008E4A5054A1E70F980078079920
:104EE00070541B48315C0E9A1143C7E70D91912114
:104EF000C900874A571819A93A46FFF739F9002E11
:104F000005D00D99102902D30028ADD187E70028DC
:104F1000AAD17F4A0B9814541320000119991154F7
:104F20000C9817507BE7C04682040000FC09002063
:104F3000120400003904000011040000040F0020D6
:104F40001404000037020000440400003C04000088
:104F50008104000084040000022070471CB5002872
:104F60001FD00446007828282CD8C0467844007901
:104F70004000874414181B1E212325272727272795
:104F80002727272B2D2F32363B40484B5456595C50
:104F90005F626567696B6D7075787C278000FC20A7
:104FA0005AE003201CBD1120000155E005F070FF00
:104FB0005EE005F071FF5BE0FE204DE0C82053E0AD
:104FC000CC2051E02046FEF7F4FF1CBDFD2043E05D
:104FD000802041E069461D201AE02B48416E806E1A
:104FE00007E0A42028490858A43108E02648C16EEB
:104FF000006F616046E0AC2023490858AC31496835
:105000006060A16035E069461A2001E069461B2016
:10501000087040201C4A105C03F023FF28E0602049
:105020001AE01948C06C23E01748006D20E01648CC
:10503000406D1DE01448806D1AE01348C06D17E004
:10504000C52009E0392007E0382005E0C42003E04E
:105050000D48406C0CE048200B49085C207108E0CA
:105060000948C06F04E0BC200749085800E0064822
:10507000606000201CBD4320800003490858606028
:1050800003F0F8FEA060F4E7040F0020F0B589B04B
:10509000002800D139E205460D2080011C4E305811
:1050A000810700D523E22978272900D994E0490017
:1050B0007944898849008F4427002D003400380046
:1050C0003E00410044004700520058005E0064006A
:1050D0006A007000760082008C008F009400B5009A
:1050E000CA00EF0005011301200128012C01300145
:1050F000340138013C014A015B01690179017F01FA
:1051000086018A0190011C02287906F0A7F866E062
:10511000FC0900202879022800D1F6E111210901BB
:10512000F1E0686805F072FF02E0686805F07CFF56
:10513000002854D0E9E12879FE21E4E06868C8211C
:1051400047E16868CC2144E16968002900D1DCE1CD
:1051500000242046FFF792FA00282ED1D6E1696894
:10516000002900D1D1E1012022E06968002900D1A5
:10517000CBE102201CE06968002900D1C5E10320D1
:1051800016E06968002900D1BFE17F2010E069685E
:10519000002900D1B9E180200AE06968002900D126
:1051A000B3E1812004E06968002900D1ADE18220EB
:1051B000FFF764FA002800D10DE11124A6E1287957
:1051C000FD21D44A5054D54CA16D8847E06A8047F0
:1051D00001E12879802196E02846FFF7BDFE0446CC
:1051E00094E1287A06A908707520CA4F385C487087
:1051F0004026B85D072203F0A6FE0324002800D154
:1052000084E168680690B85D06A90026324603F07E
:105210009AFE002800D179E16868A9687866B966C5
:10522000344673E1287A06A908707520B94C205CD1
:1052300048704020205C072203F085FE002800D142
:1052400063E16868A968A422A050A43438E0287AF1
:1052500006A908707520AF4E305C48704020305C65
:10526000072203F070FE002800D14EE16868A968AB
:10527000F0663167FC20305C0024022800D045E154
:1052800011200001305C002800D13FE1A348C06A32
:10529000804701F007FF39E1287A06A908707520D8
:1052A0009C4C205C48704020205C072203F04BFEA1
:1052B000002800D129E16868A968AC22A050AC346C
:1052C000616088E007A900240C716868079040209D
:1052D000904A105C02F07AFD002800D115E115E13A
:1052E00007A901200871686807904020894A105C6E
:1052F00002F06CFD00286ED107E12879411E0E29CD
:1053000000D902E16021834A5BE068688149C86492
:1053100061E068687F4908655DE068687D494865C7
:1053200059E068687B49886555E068687949C865CF
:1053300051E0287906A908704020764C205C0622AE
:1053400003F001FE002800D1DFE0C5202BE0287922
:1053500006A908707420F84C205C88704020205CFE
:10536000052203F0F0FD002800D1CEE039201AE03C
:10537000287906A908704020EF4C205C092203F030
:10538000E2FD002800D1C0E038200CE0287906A911
:1053900008704020E84C205C0A2203F0D4FD00286D
:1053A00000D1B2E0C4200699215414E06868842139
:1053B000E14A505050640EE028794821DE4A5054AA
:1053C0008821505407E06868DB49C86703E06868D3
:1053D000BC21D94A5050002498E06C68002C00D1C0
:1053E00093E0012800D082E0452085007527242124
:1053F0002046FBF76DFB616A884204D1CE48282223
:10540000214607F05CFA4D2005900197BF00601916
:1054100002902546283514212846FBF759FBE16BFD
:10542000884205D1C44828301822294607F047FA97
:10543000692003900598C0000490E0190590254666
:105440004035D4212846FBF743FB0299096888427E
:1054500013D1B94F38464030D822294607F02FFAE9
:10546000B748305C1F214901705470182A494182A5
:10547000F96E41600199795C01740398C700049842
:10548000201804902320C600A519BC212846FBF74C
:105490001FFB05990968884205D1A7488019C022D9
:1054A000294607F00CFAE7193B20C600A519902100
:1054B0002846FBF70DFB04990968884205D19E48F0
:1054C00080199422294607F0FAF9CD208600A51903
:1054D00014212846FBF7FCFA39680024884215D1CC
:1054E000954880191822294607F0E9F90EE00124B1
:1054F0000CE0A879012808D86868432189008E4A01
:1055000050506868FFF7D4F854E60324204609B0E9
:10551000F0BDC046040F00200102000060CF00086B
:10552000F0B58DB007A900260E80002800D186E0D6
:105530007D4C0D218F01E1590125002900D07FE02C
:105540007849615C012900D07AE00690FEF7C8FE38
:10555000002800D074E0FEF76BFE002805D17348E8
:1055600020180021142207F0BEF97149605C042361
:10557000184360546F48214601240C5408A8C67093
:105580004470069A11780170481E02250D2800D932
:10559000ABE0C046784400794000874406A6A65494
:1055A000566DA6A6A67AA67C8D9C5F4CE05D800613
:1055B00000D5B4E015461F4603F0D0FC0397E95729
:1055C00040205D4D0290285C00273A46049702F087
:1055D000E1FB39210191685408A807214170384640
:1055E00005F03CFE4120800027542518FF2028812B
:1055F000A01C68602F460A3705F04EFC01460822C1
:105600000592384607F05BF9123505F041FC01467A
:105610002846059A07F053F9049805F035FA002852
:1056200074D00546069C03982156434E0298305C80
:10563000012202F0AFFB22460199705455E0032588
:1056400028460DB0F0BD022046E03D48364C205CB7
:10565000928809A908703920374B185C48703820A7
:10566000185C88708A81986FDA6F0A900B924020DC
:10567000185C03F04DFC07E00C20115690689288EE
:105680002E4BDB6B9847284CE05902210143E15136
:105690003CE00D2020E008A8C470FEF77EFC069ACE
:1056A0000028254621D100252846FEF78DFC2846F6
:1056B000FEF76EFC1C4C29E0FC201F49085C00280A
:1056C00013D1147907202040FEF780FC07A90C7045
:1056D0001020012202E0122007A90022FEF77CFC24
:1056E0000028114C12D01325069A16480E4C20584B
:1056F0001061FEF79DFD0028A2D11348002121541E
:105700000B4AA05CFB210140A15499E70D482058A9
:105710000699086108A8FEF76DFD354690E701255A
:105720008EE7C04682040000FC0900204C04000003
:10573000810400004D040000040F002060CF000829
:10574000150400008404000014040000F8B50225CC
:10575000002850D00446016800294CD02646203647
:10576000087860714878A0608A7812021018A060EA
:10577000CA7812041018A0600A7912061018A060E6
:105780004A7922738879E081CB791B021818E0816D
:105790000F273A4020461030083107F090F80025D6
:1057A00035723570207B38400246083221798B1AD9
:1057B000052B0CDB23689A5C32700930091A0A1F2A
:1057C00032721918D2B2606A07F079F8217920682C
:1057D0000818011F0978E162C21E127812025118DE
:1057E000E162821E127812045118E162401E0078B4
:1057F00000064018E0622846F8BDB0B50446022015
:10580000002C48D02168002945D008786071A01D7F
:10581000491C03252A4607F052F821682046093022
:10582000091D2A4607F04BF82168C879E0600A7A1A
:1058300012021018E0604A7A12041018E0608A7AA6
:1058400012061018E060C87A2074087B6074207912
:10585000212808D1204612300D31102207F02FF8F0
:1058600021681D2004E0112801D90120B0BD0D20C0
:105870000A5C62620B185B781B029A186262022350
:105880000343C85C000480186062C918497809069F
:10589000081860620020B0BDF0B5A7B0EFF310802B
:1058A000EFF3108172B6804F3C78F9787A78BB7844
:1058B00000263E6080F31088180280180904401802
:1058C0000002001919A9002800D1D7E2E0060B94C4
:1058D000099174D5FC2175480A91405C022802D0D8
:1058E0007348C06A80473B200001724D2958072049
:1058F000C0012C18204606F0EDFC204606F004FD01
:10590000ED208000089029587320C0002C182046F4
:1059100006F0E0FC204606F0F7FC674A63490A9867
:10592000085C0D46022803D06248805C002813D032
:105930000CA9162008704020285C03F092FA5D4AFA
:105940000899515809187F20C0001418204606F005
:10595000C1FC204606F0D8FC7868E8625749554AF1
:10596000515C19AC21701A9025A805F039FD412031
:1059700080002B5828184068269A259900900EA878
:1059800005F058FD11200001285C411E884160701F
:105990000F981D900E981C908320C0002946454DFD
:1059A00028581B904020085C214603F0AAFA424880
:1059B000285C002802D142483E4A16540B9C20071E
:1059C00000D429E23F483B4D2E54798A3E48079146
:1059D00029520921C9010591695C3C4AA954F96819
:1059E0000A9132463E8A3F7D39496A5428188770A9
:1059F0006C1862716280227622616261A281A27358
:105A0000A26008920C92CC20284903900858049078
:105A10002748C06A80477320C000281806F0AEFCF3
:105A20000A9806963146FEF7CDFA002806D0294896
:105A30002F542948079929520B9CEDE10297FC202D
:105A400007901A4A105C0128089E1FD1FEF7ADFA94
:105A500000280BD000273846FEF7B9FA3846FEF783
:105A6000AEFA042019496854104A0FE0FEF79BFA79
:105A700000280E4A0AD000273846FEF7A6FA384614
:105A8000FEF799FA094A0520104968540A980078E7
:105A90004709781E06282AD87844007940008744B0
:105AA0001D2630262D263E007C010020040F0020FC
:105AB00060CF0008FC090020140400001504000059
:105AC000390400003C0400007C0400007F04000056
:105AD0001C040000740400007204000006991029E0
